:030000000208AB48
:0C08AB00787FE4F6D8FD75810702080094
:10080000C293C292C291C290D290C293C292C2913C
:10081000900000AF82AE83E4FCFD7B607AEAF9F8D9
:10082000D31208954003A380EAD291C293C292C228
:1008300090E4F583F582AF82AE83E4FCFD7B607AC1
:10084000EAF9F8D31208954003A380EAD292C29342
:10085000C291C290E4F583F582AF82AE83E4FCFDE1
:100860007B607AEAF9F8D31208954003A380EAD2B4
:1008700093C292C291C290E4F583F582AF82AE83B7
:10088000E4FCFD7B607AEAF9F8D312089550030284
:050890000808A380E749
:10089500EB9FF5F0EA9E42F0E99D42F0EC6480C8DA
:0608A50064809845F0227A
:00000001FF
